:100000000C9428010C9459010C9459010C94590139
:100010000C9459010C9459010C9459010C945901F8
:100020000C9459010C9459010C9459010C945901E8
:100030000C9459010C9459010C9459010C945901D8
:100040000C9459010C9459010C9459010C945901C8
:100050000C9459010C9459010C9459010C947E0391
:100060000C9459010C94F2030C94C8030C9459019C
:100070000C9459010C9459010C9459010C94590198
:100080000C9459010C9459010C9459010C94590188
:100090000C9459010C9459010C9459010C94590178
:1000A0000C9459010C9459010C9459010C94590168
:1000B0000C9459010C9459010C9459010C94590158
:1000C0000C9459010C9459010C9459010C94590148
:1000D0000C9459010C9459010C9459010C94590138
:1000E0000C9459010C9420030C94CF010C94B10191
:1000F0000C9490010C94A2010C94D7010C94A601CD
:100100000C949D050C948B010C94C5010C946A020F
:100110000C94E1010C94D3020C94C9010C94C1011C
:100120000C948D020C94AE010C94AA010C94DD0188
:100130000C9479020C943D020C94B7010C94BB0111
:100140000C949B020C94D301000021002400270092
:100150002A002D00300033000101000004010701D6
:100160000A0100002200250028002B002E0031008B
:10017000340002010000050108010B010505050519
:10018000070508080808020202020A0A080804040F
:10019000040401010101010101010303030303033D
:1001A0000303040707070C0C0C0C0C0C0C0C0202CC
:1001B000020206060606060606060B0B0B0B0B0BC9
:1001C0000B0B010210202008081020401020408056
:1001D000020102010804020101020408102040800B
:1001E0008040201008040201800402018040201099
:1001F00008040201080402010102040810204080E2
:10020000010204081020408000000A0B02090C0DB6
:100210000E080703040100000000000000000000B9
:1002200000000000000000000000000000000000CE
:10023000000000001211100000000000000000008B
:1002400000000000000000000000000000009D050C
:1002500011241FBECFEFD1E2DEBFCDBF00E00CBF47
:1002600012E0A0E0B2E0E6E5FCE000E00BBF02C077
:1002700007900D92A632B107D9F722E0A6E2B2E0CC
:1002800001C01D92AC3CB207E1F711E0C8E2D1E039
:1002900000E006C021970109802FFE010E941A0686
:1002A000C732D10780E00807A9F70E9428040C9400
:1002B00029060C940000282F30E0F901E85FFD4F7B
:1002C0009491F901EE53FE4F449124583E4FF901A9
:1002D0002491222309F435C0992311F191509231D0
:1002E000F8F4E92FF0E08827E758FE4F8F4F0C9481
:1002F0001A06AA01AE018B01A201A6019001B1016B
:10030000B701BB01C101C501C901CF01D3019001F2
:10031000D701DD01E101809180008F77809380001B
:10032000E22FF0E0EE0FFF1FEE59FE4FA591B491C2
:100330008FB7F894EC91611148C040954E234C93CF
:100340008FBF0895809180008F7DE8CF80918000DD
:10035000877FE4CF84B58F7784BDE2CF84B58F7D6E
:10036000FBCF8091B0008F778093B000D9CF809180
:10037000B0008F7DF9CF809190008F7780939000AF
:10038000CFCF809190008F7DF9CF80919000877FB3
:10039000F5CF8091A0008F778093A000C1CF80918E
:1003A000A0008F7DF9CF8091A000877FF5CF80914D
:1003B00020018F7780932001B3CF809120018F7D22
:1003C000F9CF80912001877FF5CF4E2BB8CFCF9307
:1003D000DF9390E0FC01EE53FE4F249184589E4F32
:1003E000FC0184918823D1F090E0880F991FFC01D3
:1003F000E85BFE4FA591B491FC01EE59FE4FC5910B
:10040000D49161110EC09FB7F8948C91E22FE095C2
:100410008E238C932881E223E8839FBFDF91CF91C5
:1004200008958FB7F894EC91E22BEC938FBFF6CF41
:100430003FB7F89480912B0290912C02A0912D024D
:10044000B0912E0226B5A89B05C02F3F19F001964A
:10045000A11DB11D3FBFBA2FA92F982F8827BC011E
:10046000CD01620F711D811D911D42E0660F771F46
:10047000881F991F4A95D1F70895AF92BF92CF92E6
:10048000DF92EF92FF920F931F93CF93DF936C0154
:100490007B018B01040F151FEB015E01AE18BF0835
:1004A000C017D10759F06991D601ED91FC910190E7
:1004B000F081E02DC6011995892B79F7C501DF91EF
:1004C000CF911F910F91FF90EF90DF90CF90BF9051
:1004D000AF900895FC01538D448D252F30E0842F7B
:1004E00090E0821B930B541710F0CF96089501975C
:1004F0000895FC01918D828D981761F0A28DAE0F49
:10050000BF2FB11D5D968C91928D9F5F9F73928FCF
:1005100090E008958FEF9FEF0895FC01918D828DFB
:10052000981731F0828DE80FF11D858D90E00895C8
:100530008FEF9FEF0895FC01918D228D892F90E020
:10054000805C9F4F821B91098F73992708958FE2DA
:1005500092E00E949B0221E0892B09F420E0822F87
:100560000895FC01A48DA80FB92FB11DA35ABF4F48
:100570002C91848D90E001968F739927848FA689A2
:10058000B7892C93A089B1898C91837080648C93F6
:10059000938D848D981306C00288F389E02D8081A5
:1005A0008F7D80830895EF92FF920F931F93CF93D7
:1005B000DF93EC0181E0888F9B8D8C8D98131AC09E
:1005C000E889F989808185FF15C09FB7F894EE8985
:1005D000FF896083E889F9898081837080648083E2
:1005E0009FBF81E090E0DF91CF911F910F91FF902D
:1005F000EF900895F62E0B8D10E00F5F1F4F0F73D5
:100600001127E02E8C8D8E110CC00FB607FCFACF8F
:10061000E889F989808185FFF5CFCE010E94B1027A
:10062000F1CFEB8DEC0FFD2FF11DE35AFF4FF08260
:100630009FB7F8940B8FEA89FB8980818062CFCFC6
:10064000CF93DF93EC01888D8823B9F0AA89BB8909
:10065000E889F9898C9185FD03C0808186FD0DC0F4
:100660000FB607FCF7CF8C9185FFF2CF808185FF15
:10067000EDCFCE010E94B102E9CFDF91CF91089575
:1006800080E090E0892B29F00E94A70281110E944E
:10069000000080E090E0892B49F080E090E0892B19
:1006A00029F00E94000081110E94000080E090E08B
:1006B000892B49F080E090E0892B29F00E9400000E
:1006C00081110E94000080E090E0892B49F080E0D9
:1006D00090E0892B29F00E94000081110C94000009
:1006E0000895FC0101900020E9F73197AF01481B04
:1006F000590BBC018FE292E00C943D021F920F92C5
:100700000FB60F9211242F933F938F939F93AF9324
:10071000BF938091270290912802A0912902B09165
:100720002A023091260223E0230F2D3758F5019637
:10073000A11DB11D209326028093270290932802C9
:10074000A0932902B0932A0280912B0290912C024F
:10075000A0912D02B0912E020196A11DB11D809392
:100760002B0290932C02A0932D02B0932E02BF91E6
:10077000AF919F918F913F912F910F900FBE0F904E
:100780001F90189526E8230F0296A11DB11DD2CF08
:100790001F920F920FB60F9211240BB60F922F9348
:1007A0003F934F935F936F937F938F939F93AF93F9
:1007B000BF93EF93FF938FE292E00E94B102FF910B
:1007C000EF91BF91AF919F918F917F916F915F91C9
:1007D0004F913F912F910F900BBE0F900FBE0F9036
:1007E0001F9018951F920F920FB60F9211240BB6FF
:1007F0000F922F938F939F93EF93FF93E0913F027C
:10080000F09140028081E0914502F091460282FD24
:100810001DC09081809148028F5F8F7320914902A3
:10082000821741F0E0914802F0E0E15DFD4F958FC5
:1008300080934802FF91EF919F918F912F910F909C
:100840000BBE0F900FBE0F901F9018958081F2CFB6
:10085000CF93DF93CDB7DEB7A1970FB6F894DEBF85
:100860000FBECDBF789484B5826084BD84B58160AD
:1008700084BD85B5826085BD85B5816085BD80916B
:100880006E00816080936E001092810080918100E3
:1008900082608093810080918100816080938100DB
:1008A000809180008160809380008091B10084609D
:1008B0008093B1008091B00081608093B0008091FE
:1008C000910082608093910080919100816080937B
:1008D0009100809190008160809390008091A100B0
:1008E00082608093A1008091A10081608093A1002B
:1008F0008091A00081608093A0008091210182609E
:100900008093210180912101816080932101809158
:10091000200181608093200180917A00846080931F
:100920007A0080917A00826080937A0080917A00C8
:10093000816080937A0080917A00806880937A0049
:100940001092C100E0913F02F091400282E080836A
:10095000E0913B02F0913C021082E0913D02F09167
:100960003E028FEC808310924702E0914302F091A7
:10097000440286E08083E0914102F091420280814E
:1009800080618083E0914102F09142028081886021
:100990008083E0914102F0914202808180688083EF
:1009A000E0914102F091420280818F7D808360E07E
:1009B00086E30E94E70161E082E00E94E70161E0D6
:1009C00083E00E94E70161E084E00E94E70161E0CA
:1009D00085E00E94E70140E4342E5AE0852E912CF8
:1009E000A12CB12C80917B00877F80937B0030927B
:1009F0007C0080917A00806480937A0080917A00F4
:100A000086FDFCCFA0917800B09179002FE030E016
:100A10000E9422062FEF33E040E050E00E94CA051A
:100A200069017A01622F617082E00E945B01B60168
:100A300075956795617083E00E945B01B6017595BD
:100A4000679575956795617084E00E945B01B601BA
:100A500033E0759567953A95E1F7617085E00E94FE
:100A60005B0182E192E00E947103F7FE50C06DE2EB
:100A70008FE292E00E94D30222273327A9012C198A
:100A80003D094E095F0919A28E010F5D1F4FCA0172
:100A9000B901A50194010E94E905605DF801629326
:100AA0008F01211531054105510589F70115110502
:100AB00019F0C8010E94710383E292E00E94710361
:100AC0000E9418022B013C0184E6C82ED12CE12C97
:100AD000F12C0E9418026419750986099709683E6D
:100AE000734081059105A8F3F1E0CF1AD108E10820
:100AF000F10828EE420E23E0521E611C711CC11445
:100B0000D104E104F10429F70E9440036BCFA7014F
:100B1000960119A28E010F5D1F4FCA01B901A501EF
:100B200094010E94E905605DF80162938F0121152F
:100B300031054105510589F7B9CFEFE2F2E01382A3
:100B4000128288EE93E0A0E0B0E084839583A683D0
:100B5000B78384E092E09183808385EC90E0958771
:100B6000848784EC90E09787868780EC90E0918B77
:100B7000808B81EC90E0938B828B82EC90E0958B64
:100B8000848B86EC90E0978B868B118E128E138E61
:100B9000148E0895052E97FB1EF400940E94E10523
:100BA00057FD07D00E94E90507FC03D04EF40C94D2
:100BB000E10550954095309521953F4F4F4F5F4F40
:100BC000089590958095709561957F4F8F4F9F4FB9
:100BD0000895A1E21A2EAA1BBB1BFD010DC0AA1F7E
:100BE000BB1FEE1FFF1FA217B307E407F50720F096
:100BF000A21BB30BE40BF50B661F771F881F991F11
:100C00001A9469F760957095809590959B01AC0159
:100C1000BD01CF010895A29FB001B39FC001A39F62
:100C2000700D811D1124911DB29F700D811D112425
:100C3000911D0895EE0FFF1F881F8BBF0790F6913F
:100C4000E02D19940E940B06B7FF0895821B930BA9
:060C50000895F894FFCFA7
:100C560000000000D3023D026A0220039B027902D3
:100C66008D0256616C6F72206469676974616C20CD
:060C76003D20000D0A0004
:00000001FF
