:100000000C9428010C9459010C9459010C94590139
:100010000C9459010C9459010C9459010C945901F8
:100020000C9459010C9459010C9459010C945901E8
:100030000C9459010C9459010C9459010C945901D8
:100040000C9459010C9459010C9459010C945901C8
:100050000C9459010C9459010C9459010C94C2034D
:100060000C9459010C9436040C940C040C94590112
:100070000C9459010C9459010C9459010C94590198
:100080000C9459010C9459010C9459010C94590188
:100090000C9459010C9459010C9459010C94590178
:1000A0000C9459010C9459010C9459010C94590168
:1000B0000C9459010C9459010C9459010C94590158
:1000C0000C9459010C9459010C9459010C94590148
:1000D0000C9459010C9459010C9459010C94590138
:1000E0000C9459010C9420030C94CF010C94B10191
:1000F0000C9490010C94A2010C94D7010C94A601CD
:100100000C948B010C94C5010C946A020C94E101CF
:100110000C94D3020C94C9010C94C1010C948D026F
:100120000C94AE010C94AA010C94DD010C9479029C
:100130000C943D020C94B7010C94BB010C949B02EF
:100140000C94D3010C9462060000210024002700C7
:100150002A002D00300033000101000004010701D6
:100160000A0100002200250028002B002E0031008B
:10017000340002010000050108010B010505050519
:10018000070508080808020202020A0A080804040F
:10019000040401010101010101010303030303033D
:1001A0000303040707070C0C0C0C0C0C0C0C0202CC
:1001B000020206060606060606060B0B0B0B0B0BC9
:1001C0000B0B010210202008081020401020408056
:1001D000020102010804020101020408102040800B
:1001E0008040201008040201800402018040201099
:1001F00008040201080402010102040810204080E2
:10020000010204081020408000000A0B02090C0DB6
:100210000E080703040100000000000000000000B9
:1002200000000000000000000000000000000000CE
:10023000000000001211100000000000000000008B
:100240000000000000000000000000000000620646
:1002500011241FBECFEFD1E2DEBFCDBF00E00CBF47
:1002600012E0A0E0B2E0E8E5F2E100E00BBF02C07E
:1002700007900D92A034B107D9F722E0A0E4B2E0D4
:1002800001C01D92A63EB207E1F711E0C8E2D1E03D
:1002900000E006C021970109802FFE010E941B0982
:1002A000C732D10780E00807A9F70E946C040C94BC
:1002B0002A090C940000282F30E0F901E85FFD4F77
:1002C0009491F901EE53FE4F449124583E4FF901A9
:1002D0002491222309F435C0992311F191509231D0
:1002E000F8F4E92FF0E08827E758FE4F8F4F0C9481
:1002F0001B09AA01AE018B01A201A6019001B10167
:10030000B701BB01C101C501C901CF01D3019001F2
:10031000D701DD01E101809180008F77809380001B
:10032000E22FF0E0EE0FFF1FEE59FE4FA591B491C2
:100330008FB7F894EC91611148C040954E234C93CF
:100340008FBF0895809180008F7DE8CF80918000DD
:10035000877FE4CF84B58F7784BDE2CF84B58F7D6E
:10036000FBCF8091B0008F778093B000D9CF809180
:10037000B0008F7DF9CF809190008F7780939000AF
:10038000CFCF809190008F7DF9CF80919000877FB3
:10039000F5CF8091A0008F778093A000C1CF80918E
:1003A000A0008F7DF9CF8091A000877FF5CF80914D
:1003B00020018F7780932001B3CF809120018F7D22
:1003C000F9CF80912001877FF5CF4E2BB8CFCF9307
:1003D000DF9390E0FC01EE53FE4F249184589E4F32
:1003E000FC0184918823D1F090E0880F991FFC01D3
:1003F000E85BFE4FA591B491FC01EE59FE4FC5910B
:10040000D49161110EC09FB7F8948C91E22FE095C2
:100410008E238C932881E223E8839FBFDF91CF91C5
:1004200008958FB7F894EC91E22BEC938FBFF6CF41
:100430003FB7F8948091450290914602A0914702FF
:10044000B091480226B5A89B05C02F3F19F0019630
:10045000A11DB11D3FBFBA2FA92F982F8827BC011E
:10046000CD01620F711D811D911D42E0660F771F46
:10047000881F991F4A95D1F70895AF92BF92CF92E6
:10048000DF92EF92FF920F931F93CF93DF936C0154
:100490007B018B01040F151FEB015E01AE18BF0835
:1004A000C017D10759F06991D601ED91FC910190E7
:1004B000F081E02DC6011995892B79F7C501DF91EF
:1004C000CF911F910F91FF90EF90DF90CF90BF9051
:1004D000AF900895FC01538D448D252F30E0842F7B
:1004E00090E0821B930B541710F0CF96089501975C
:1004F0000895FC01918D828D981761F0A28DAE0F49
:10050000BF2FB11D5D968C91928D9F5F9F73928FCF
:1005100090E008958FEF9FEF0895FC01918D828DFB
:10052000981731F0828DE80FF11D858D90E00895C8
:100530008FEF9FEF0895FC01918D228D892F90E020
:10054000805C9F4F821B91098F739927089589E4DE
:1005500092E00E949B0221E0892B09F420E0822F87
:100560000895FC01A48DA80FB92FB11DA35ABF4F48
:100570002C91848D90E001968F739927848FA689A2
:10058000B7892C93A089B1898C91837080648C93F6
:10059000938D848D981306C00288F389E02D8081A5
:1005A0008F7D80830895EF92FF920F931F93CF93D7
:1005B000DF93EC0181E0888F9B8D8C8D98131AC09E
:1005C000E889F989808185FF15C09FB7F894EE8985
:1005D000FF896083E889F9898081837080648083E2
:1005E0009FBF81E090E0DF91CF911F910F91FF902D
:1005F000EF900895F62E0B8D10E00F5F1F4F0F73D5
:100600001127E02E8C8D8E110CC00FB607FCFACF8F
:10061000E889F989808185FFF5CFCE010E94B1027A
:10062000F1CFEB8DEC0FFD2FF11DE35AFF4FF08260
:100630009FB7F8940B8FEA89FB8980818062CFCFC6
:10064000CF93DF93EC01888D8823B9F0AA89BB8909
:10065000E889F9898C9185FD03C0808186FD0DC0F4
:100660000FB607FCF7CF8C9185FFF2CF808185FF15
:10067000EDCFCE010E94B102E9CFDF91CF91089575
:1006800080E090E0892B29F00E94A70281110E944E
:10069000000080E090E0892B49F080E090E0892B19
:1006A00029F00E94000081110E94000080E090E08B
:1006B000892B49F080E090E0892B29F00E9400000E
:1006C00081110E94000080E090E0892B49F080E0D9
:1006D00090E0892B29F00E94000081110C94000009
:1006E0000895FC0101900020E9F73197AF01481B04
:1006F000590BBC0189E492E00C943D028F929F92C9
:10070000AF92BF920F931F93CF93DF93CDB7DEB716
:10071000A1970FB6F894DEBF0FBECDBF19A242302D
:1007200008F44AE08E010F5D1F4F842E912CB12CEE
:10073000A12CA50194010E94AE06E62FB901CA01C1
:10074000EA30F4F4E05DD801EE938D01232B242BE5
:10075000252B79F790E080E0109719F0CD010E94E9
:100760007103A1960FB6F894DEBF0FBECDBFDF9127
:10077000CF911F910F91BF90AF909F908F90089550
:10078000E95CE1CF1F920F920FB60F9211242F93C5
:100790003F938F939F93AF93BF938091410290912A
:1007A0004202A0914302B09144023091400223E002
:1007B000230F2D3758F50196A11DB11D209340023E
:1007C0008093410290934202A0934302B09344026B
:1007D0008091450290914602A0914702B091480253
:1007E0000196A11DB11D8093450290934602A093EE
:1007F0004702B0934802BF91AF919F918F913F9173
:100800002F910F900FBE0F901F90189526E8230F81
:100810000296A11DB11DD2CF1F920F920FB60F925B
:1008200011240BB60F922F933F934F935F936F93C7
:100830007F938F939F93AF93BF93EF93FF9389E43D
:1008400092E00E94B102FF91EF91BF91AF919F9111
:100850008F917F916F915F914F913F912F910F9069
:100860000BBE0F900FBE0F901F9018951F920F9206
:100870000FB60F9211240BB60F922F938F939F9365
:10088000EF93FF93E0915902F0915A028081E09139
:100890005F02F091600282FD1DC090818091620232
:1008A0008F5F8F7320916302821741F0E0916202A3
:1008B000F0E0E75BFD4F958F80936202FF91EF912F
:1008C0009F918F912F910F900BBE0F900FBE0F90A5
:1008D0001F9018958081F2CF789484B5826084BD92
:1008E00084B5816084BD85B5826085BD85B5816034
:1008F00085BD80916E00816080936E0010928100B2
:10090000809181008260809381008091810081606C
:10091000809381008091800081608093800080912D
:10092000B10084608093B1008091B00081608093B9
:10093000B00080919100826080939100809191003D
:1009400081608093910080919000816080939000FD
:100950008091A10082608093A1008091A1008160BC
:100960008093A1008091A00081608093A00080917D
:100970002101826080932101809121018160809317
:1009800021018091200181608093200180917A0073
:10099000846080937A0080917A00826080937A00EC
:1009A00080917A00816080937A0080917A008068DB
:1009B00080937A001092C100E0915902F0915A029E
:1009C00082E08083E0915502F09156021082E0911E
:1009D0005702F09158028FEC808310926102E091EF
:1009E0005D02F0915E0286E08083E0915B02F0910F
:1009F0005C02808180618083E0915B02F0915C0207
:100A0000808188608083E0915B02F0915C0280814C
:100A100080688083E0915B02F0915C0280818F7D31
:100A2000808360E086E30E94E70161E082E00E944B
:100A3000E70161E083E00E94E70161E084E00E9459
:100A4000E70161E085E00E94E701C0E444244A94A4
:100A500043E0542E612C712C80917B00877F809322
:100A60007B00C0937C0080917A00806480937A0040
:100A700080917A0086FDFCCFA0917800B09179003A
:100A80002FE030E00E942309A30192010E948F060B
:100A900069017A01B901330F880B990B0E94F407A1
:100AA00020E030E040EA50E40E94A90820E030E075
:100AB00040E751E40E9451074B015C016C2D6170CD
:100AC00082E00E945B01B60175956795617083E0D5
:100AD0000E945B01B6017595679575956795617084
:100AE00084E00E945B01B60133E0759567953A9505
:100AF000E1F7617085E00E945B0182E192E00E9473
:100B000071034AE0C701B601F7FE0DC06DE289E44A
:100B100092E00E94D30266277727CB016C197D09EA
:100B20008E099F094AE00E947E0383E292E00E94C0
:100B30007103A5019401C501B4010E94160988231F
:100B400079F181E392E00E9471038DE392E00E94CB
:100B500071030E9418024B015C0184E6C82ED12C5F
:100B6000E12CF12C0E941802681979098A099B0965
:100B7000683E734081059105A8F321E0C21AD108AF
:100B8000E108F10888EE880E83E0981EA11CB11CD4
:100B9000C114D104E104F10429F70E9440035CCFA1
:100BA00075016401E894F7F82FEF3FEF4FE75FE737
:100BB000C701B6010E94160981110DC02FEF3FEF4A
:100BC0004FE75FE7C701B6010E944C0718161CF4F7
:100BD00085E392E0B8CF2FEF3FEF4FE75FE4C50129
:100BE000B4010E94A40818161CF489E392E0ABCF6C
:100BF0002FEF3FEF4FE75FECC501B4010E944C07B8
:100C000087FDF3CF20E030E0A901C501B4010E94C7
:100C10004C0787FF09C06DE289E492E00E94D3028D
:100C2000B7FAB094B7F8B0942AE037ED43EA5BE343
:100C3000C501B4010E94E0064B015C010E94C3079C
:100C40006B017C010E94F2079B01AC01C501B4015C
:100C50000E94DF064B015C014AE0C701B6010E9419
:100C60007E036EE289E492E00E94D30220E030E04D
:100C700040E251E4C501B4010E94A9084B015C01A6
:100C80000E94C3076B01F12CE12C4AE0C701B601B9
:100C90000E947E03C701B6010E94F2079B01AC01CE
:100CA000C501B4010E94DF0620E030E040E251E4DB
:100CB0000E94A9080E94C30790E080E04AE00E94D9
:100CC0007E0343CFE9E4F2E01382128288EE93E0E0
:100CD000A0E0B0E084839583A683B78384E092E0AC
:100CE0009183808385EC90E09587848784EC90E005
:100CF0009787868780EC90E0918B808B81EC90E0E9
:100D0000938B828B82EC90E0958B848B86EC90E0C9
:100D1000978B868B118E128E138E148E0895052E4E
:100D200097FB1EF400940E94A60657FD07D00E9470
:100D3000AE0607FC03D04EF40C94A60650954095E1
:100D4000309521953F4F4F4F5F4F08959095809577
:100D5000709561957F4F8F4F9F4F0895A1E21A2E96
:100D6000AA1BBB1BFD010DC0AA1FBB1FEE1FFF1F4F
:100D7000A217B307E407F50720F0A21BB30BE40B9F
:100D8000F50B661F771F881F991F1A9469F76095E6
:100D90007095809590959B01AC01BD01CF010895A0
:100DA000A29FB001B39FC001A39F700D811D1124AC
:100DB000911DB29F700D811D1124911D08955058F1
:100DC000BB27AA270E94F7060C946A080E945C08B9
:100DD00038F00E94630820F039F49F3F19F426F49C
:100DE0000C9459080EF4E095E7FB0C945308E92F96
:100DF0000E947B0858F3BA176207730784079507A8
:100E000020F079F4A6F50C949D080EF4E0950B2ED5
:100E1000BA2FA02D0B01B90190010C01CA01A0014C
:100E20001124FF27591B99F0593F50F4503E68F1A7
:100E30001A16F040A22F232F342F4427585FF3CFE8
:100E4000469537952795A795F0405395C9F77EF4B9
:100E50001F16BA0B620B730B840BBAF09150A1F002
:100E6000FF0FBB1F661F771F881FC2F70EC0BA0F88
:100E7000621F731F841F48F4879577956795B79510
:100E8000F7959E3F08F0B0CF9395880F08F099270B
:100E9000EE0F9795879508950E942F0808F481E03A
:100EA00008950E9465070C946A080E94630858F030
:100EB0000E945C0840F029F45F3F29F00C9453082D
:100EC00051110C949E080C9459080E947B0868F3F9
:100ED0009923B1F3552391F3951B550BBB27AA27F3
:100EE00062177307840738F09F5F5F4F220F331F2D
:100EF000441FAA1FA9F335D00E2E3AF0E0E832D0F5
:100F000091505040E695001CCAF72BD0FE2F29D0F7
:100F1000660F771F881FBB1F261737074807AB07C9
:100F2000B0E809F0BB0B802DBF01FF2793585F4F3E
:100F30003AF09E3F510578F00C9453080C949E08AB
:100F40005F3FE4F3983ED4F3869577956795B79520
:100F5000F7959F5FC9F7880F911D9695879597F92B
:100F60000895E1E0660F771F881FBB1F62177307A4
:100F70008407BA0720F0621B730B840BBA0BEE1FB9
:100F800088F7E09508950E94830888F09F5798F0AD
:100F9000B92F9927B751B0F0E1F0660F771F881F7E
:100FA000991F1AF0BA95C9F714C0B13091F00E9498
:100FB0009D08B1E008950C949D08672F782F88272D
:100FC000B85F39F0B93FCCF3869577956795B395BF
:100FD000D9F73EF490958095709561957F4F8F4F2E
:100FE0009F4F0895E89409C097FB3EF49095809533
:100FF000709561957F4F8F4F9F4F9923A9F0F92FDF
:1010000096E9BB279395F695879577956795B7955C
:10101000F111F8CFFAF4BB0F11F460FF1BC06F5F42
:101020007F4F8F4F9F4F16C0882311F096E911C054
:10103000772321F09EE8872F762F05C0662371F075
:1010400096E8862F70E060E02AF09A95660F771F89
:10105000881FDAF7880F9695879597F90895990F65
:101060000008550FAA0BE0E8FEEF16161706E80772
:10107000F907C0F012161306E407F50798F0621B93
:10108000730B840B950B39F40A2661F0232B242B68
:10109000252B21F408950A2609F4A140A6958FEF87
:1010A000811D811D089597F99F6780E870E060E0D9
:1010B00008959FEF80EC089500240A9416161706F1
:1010C00018060906089500240A9412161306140639
:1010D00005060895092E0394000C11F4882352F09C
:1010E000BB0F40F4BF2B11F460FF04C06F5F7F4F54
:1010F0008F4F9F4F089557FD9058440F551F59F03B
:101100005F3F71F04795880F97FB991F61F09F3FF4
:1011100079F087950895121613061406551FF2CF1D
:101120004695F1DF08C0161617061806991FF1CF6D
:1011300086957105610508940895E894BB27662794
:101140007727CB0197F908950E942F0808F48FEFB5
:1011500008950E94BC080C946A080E945C0838F04C
:101160000E94630820F0952311F00C9453080C940E
:10117000590811240C949E080E947B0870F3959FD7
:10118000C1F3950F50E0551F629FF001729FBB277E
:10119000F00DB11D639FAA27F00DB11DAA1F649F1A
:1011A0006627B00DA11D661F829F2227B00DA11DCD
:1011B000621F739FB00DA11D621F839FA00D611D53
:1011C000221F749F3327A00D611D231F849F600D74
:1011D000211D822F762F6A2F11249F5750409AF09D
:1011E000F1F088234AF0EE0FFF1FBB1F661F771F29
:1011F000881F91505040A9F79E3F510580F00C94F4
:1012000053080C949E085F3FE4F3983ED4F3869510
:1012100077956795B795F795E7959F5FC1F7FE2B93
:10122000880F911D9695879597F908950E942F082C
:10123000880B990B0895EE0FFF1F881F8BBF079037
:10124000F691E02D19940E94D006B7FF0895821BF5
:08125000930B0895F894FFCF01
:1012580000000000D3023D026A0220039B027902CB
:101268008D0276616C6F72206469676974616C20A5
:101278003D20002C20616D706C69747564203D20E0
:10128800006E616E00696E66006F7666000D0A007A
:00000001FF
