:100000000C9435010C9466010C9466010C94660105
:100010000C9466010C9466010C9466010C946601C4
:100020000C9466010C9466010C9466010C946601B4
:100030000C9466010C9466010C9466010C946601A4
:100040000C9466010C9466010C9466010C94660194
:100050000C9466010C9466010C9466010C940804DF
:100060000C9466010C947C040C9452040C9466016C
:100070000C9466010C9466010C9466010C94660164
:100080000C9466010C9466010C9466010C94660154
:100090000C9466010C9466010C9466010C94660144
:1000A0000C9466010C9466010C9466010C94660134
:1000B0000C9466010C9466010C9466010C94660124
:1000C0000C9466010C9466010C9466010C94660114
:1000D0000C9466010C9466010C9466010C94660104
:1000E0000C9466010C94C8020C94B2020C94C402E5
:1000F0000C94C0020C949F020C94AC020C94CD02A0
:100100000C94BA020C94D2020C9497020C94A202A2
:100110000C948D030C94CE020C9414020C948B015D
:100120000C948D020C949B020C9477010C940B069A
:100130000C94B6020C9493020C94A8020C946801DF
:100140000C9499010C94C7010000200023002600A4
:1001500029002C002F0032000001000003010601DD
:10016000090100002100240027002A002D00300092
:10017000330001010000040107010A010000220010
:10018000250028002B002E00310034000201000061
:10019000050108010B010505050507050808080804
:1001A000020202020A0A080804040404010101010F
:1001B000010101010303030303030303040707070A
:1001C0000C0C0C0C0C0C0C0C0202020206060606AF
:1001D000060606060B0B0B0B0B0B0B0B010210207C
:1001E000200808102040102040800201020108046D
:1001F0000201010204081020408080402010080401
:100200000201800402018040201008040201080459
:10021000020101020408102040800102040810209D
:10022000408000000A0B02090C0D0E0807030401B0
:1002300000000000000000000000000000000000BE
:10024000000000000000000000000000000012118B
:10025000100000000000000000000000000000008E
:1002600000000000000000000B0611241FBECFEFAD
:10027000D1E2DEBFCDBF00E00CBF12E0A0E0B2E0F3
:10028000E8E7FDE000E00BBF02C007900D92A63149
:10029000B107D9F722E0A6E1B2E001C01D92A83C67
:1002A000B207E1F711E0C5E3D1E000E006C0219715
:1002B0000109802FFE010E94B206C433D10780E0FD
:1002C0000807A9F70E94B2040C94BA060C94000027
:1002D000FC01538D448D252F30E0842F90E0821B4C
:1002E000930B541710F0CF96089501970895FC01D1
:1002F000918D828D981761F0A28DAE0FBF2FB11D29
:100300005D968C91928D9F5F9F73928F90E0089580
:100310008FEF9FEF0895FC01918D828D981731F03A
:10032000828DE80FF11D858D90E008958FEF9FEF8E
:100330000895FC01918D228D892F90E0805C9F4F64
:10034000821B91098F7399270895FC01A48DA80F32
:10035000B92FB11DA35ABF4F2C91848D90E0019607
:100360008F739927848FA689B7892C93A089B18927
:100370008C91837080648C93938D848D981306C0C8
:100380000288F389E02D80818F7D80830895EF922C
:10039000FF920F931F93CF93DF93EC0181E0888F3F
:1003A0009B8D8C8D98131AC0E889F989808185FF0F
:1003B00015C09FB7F894EE89FF896083E889F989B1
:1003C00080818370806480839FBF81E090E0DF91B3
:1003D000CF911F910F91FF90EF900895F62E0B8D06
:1003E00010E00F5F1F4F0F731127E02E8C8D8E11C1
:1003F0000CC00FB607FCFACFE889F989808185FF28
:10040000F5CFCE010E94A501F1CFEB8DEC0FFD2FB2
:10041000F11DE35AFF4FF0829FB7F8940B8FEA89E2
:10042000FB8980818062CFCFCF93DF93EC01888DF1
:100430008823B9F0AA89BB89E889F9898C9185FD5F
:1004400003C0808186FD0DC00FB607FCF7CF8C91ED
:1004500085FFF2CF808185FFEDCFCE010E94A501FF
:10046000E9CFDF91CF9108958BE292E00E9499014C
:1004700021E0892B09F420E0822F089580E090E0AC
:10048000892B29F00E94340281110E94000080E033
:1004900090E0892B49F080E090E0892B29F00E94C0
:1004A000000081110E94000080E090E0892B49F05B
:1004B00080E090E0892B29F00E94000081110E94C9
:1004C000000080E090E0892B49F080E090E0892BEB
:1004D00029F00E94000081110C94000008958150C1
:1004E000823108F05AC0E82FF0E08827E558FD4F28
:1004F0008F4F0C94B2069B029F028D0293029702CB
:10050000CD02A202A802AC02B202B602BA02C00236
:10051000C402CD02C802CE02D202809180008F7741
:10052000809380000895809180008F7DF9CF809125
:100530008000877FF5CF84B58F7784BD089584B51B
:100540008F7DFBCF8091B0008F778093B0000895AE
:100550008091B0008F7DF9CF809190008F7780934C
:1005600090000895809190008F7DF9CF8091900048
:10057000877FF5CF8091A0008F778093A0000895AA
:100580008091A0008F7DF9CF8091A000877FF5CF6B
:10059000809120018F778093200108958091200120
:1005A0008F7DF9CF80912001877FF5CF1F93CF9367
:1005B000DF93282F30E0F901EE5DFD4F8491F901C2
:1005C000E452FE4FD491F901EA56FE4FC491CC2378
:1005D000A9F0162F81110E946F02EC2FF0E0EE0FB0
:1005E000FF1FE458FE4FA591B4918FB7F894EC919A
:1005F000111108C0D095DE23DC938FBFDF91CF911E
:100600001F910895DE2BF8CFCF93DF9390E0FC018C
:10061000E452FE4F24918A569E4FFC018491882318
:10062000D1F090E0880F991FFC01EE59FE4FA59183
:10063000B491FC01E458FE4FC591D49161110EC0F4
:100640009FB7F8948C91E22FE0958E238C932881AC
:10065000E223E8839FBFDF91CF9108958FB7F8948D
:10066000EC91E22BEC938FBFF6CF3FB7F8948091DB
:10067000270290912802A0912902B0912A0226B562
:10068000A89B05C02F3F19F00196A11DB11D3FBFCA
:10069000BA2FA92F982F8827BC01CD01620F711D99
:1006A000811D911D42E0660F771F881F991F4A9593
:1006B000D1F708958F929F92AF92BF92CF92DF921F
:1006C000EF92FF926B017C010E9435034B015C01AC
:1006D000C114D104E104F104B9F00E943503681992
:1006E00079098A099B09683E73408105910580F369
:1006F00021E0C21AD108E108F10888EE880E83E0F3
:10070000981EA11CB11CE4CFFF90EF90DF90CF901A
:10071000BF90AF909F908F900895AF92BF92CF926D
:10072000DF92EF92FF920F931F93CF93DF936C01B1
:100730007B018B01040F151FEB015E01AE18BF0892
:10074000C017D10759F06991D601ED91FC91019044
:10075000F081E02DC6011995892B79F7C501DF914C
:10076000CF911F910F91FF90EF90DF90CF90BF90AE
:10077000AF9008958F929F92AF92BF920F931F9365
:10078000CF93DF93CDB7DEB7A1970FB6F894DEBF56
:100790000FBECDBF19A2423008F44AE08E010F5DB2
:1007A0001F4F842E912CB12CA12CA50194010E94E5
:1007B0009006E62FB901CA01EA3044F5E05DD801A0
:1007C000EE938D01232B242B252B79F790E080E0ED
:1007D000109769F0FD0101900020E9F73197AF0112
:1007E0004A1B5B0BBD018BE292E00E948D03A19638
:1007F0000FB6F894DEBF0FBECDBFDF91CF911F9132
:100800000F91BF90AF909F908F900895E95CD7CFE4
:100810001F920F920FB60F9211242F933F938F9335
:100820009F93AF93BF938091230290912402A09154
:100830002502B09126023091220223E0230F2D37AA
:1008400058F50196A11DB11D209322028093230229
:1008500090932402A0932502B09326028091270250
:1008600090912802A0912902B0912A020196A11D1F
:10087000B11D8093270290932802A0932902B09380
:100880002A02BF91AF919F918F913F912F910F902D
:100890000FBE0F901F90189526E8230F0296A11DFA
:1008A000B11DD2CF1F920F920FB60F9211240BB62B
:1008B0000F922F933F934F935F936F937F938F93F9
:1008C0009F93AF93BF93EF93FF938BE292E00E94CD
:1008D000A501FF91EF91BF91AF919F918F917F9172
:1008E0006F915F914F913F912F910F900BBE0F90A1
:1008F0000FBE0F901F9018951F920F920FB60F9278
:1009000011240BB60F922F938F939F93EF93FF9326
:10091000E0913B02F0913C028081E0914102F09134
:10092000420282FD1DC09081809144028F5F8F73CF
:1009300020914502821741F0E0914402F0E0E55D2C
:10094000FD4F958F80934402FF91EF919F918F917E
:100950002F910F900BBE0F900FBE0F901F90189508
:100960008081F2CF789484B5826084BD84B5816043
:1009700084BD85B5826085BD85B5816085BD80916A
:100980006E00816080936E001092810080918100E2
:1009900082608093810080918100816080938100DA
:1009A000809180008160809380008091B10084609C
:1009B0008093B1008091B00081608093B0008091FD
:1009C000910082608093910080919100816080937A
:1009D0009100809190008160809390008091A100AF
:1009E00082608093A1008091A10081608093A1002A
:1009F0008091A00081608093A0008091210182609D
:100A00008093210180912101816080932101809157
:100A1000200181608093200180917A00846080931E
:100A20007A0080917A00826080937A0080917A00C7
:100A3000816080937A0080917A00806880937A0048
:100A40001092C10061E088E00E94040361E089E047
:100A50000E94040361E08AE00E94040361E08CE0EC
:100A60000E94040361E08DE00E94040360E082E0E4
:100A70000E9404039EED292E91E0392E08E911E031
:100A8000812C20E8922E2BE3A22E25E4B22E412CBD
:100A900034ED532E32E3632E37E4732EC12CD12C68
:100AA0004AEFE42E43E4F42EE4E2F2E08491F10113
:100AB000D491F801C491CC2309F48DC081110E9416
:100AC0006F02EC2FF0E0EE0FFF1FE85BFE4FA591E9
:100AD000B4918C91D82391E080E009F490E0C92F83
:100AE000D82FBE010D2E000C880B990B4AE00E94F6
:100AF000BA0342E050E062E172E08BE292E00E94D1
:100B00008D03219709F06AC0C0921E02D0921F0285
:100B1000E0922002F092210210921A0210921B021F
:100B200010921C0210921D02C0921602D09217025F
:100B3000E0921802F092190260E089E00E94D60269
:100B400061E088E00E94D60260E08CE00E94D6025C
:100B500061E08DE00E94D60260911E0270911F023A
:100B600080912002909121020E9438060E945A032F
:100B700061E08AE00E94D60260E088E00E94D6022E
:100B800061E08CE00E94D60260E08DE00E94D60217
:100B900060911602709117028091180290911902CB
:100BA0000E9438060E945A0360E08AE00E94D60242
:100BB00061E089E00E94D60260911A0270911B02E6
:100BC00080911C0290911D020E9438060E945A03D7
:100BD0000E943E0269CFD0E0C0E083CF80E098E67B
:100BE000A8E5B7E480931E0290931F02A093200211
:100BF000B093210280921A0290921B02A0921C02D2
:100C0000B0921D0240921602509217026092180292
:100C10007092190291CFEBE2F2E01382128288EE19
:100C200093E0A0E0B0E084839583A683B78384E05B
:100C300092E09183808385EC90E09587848784ECB3
:100C400090E09787868780EC90E0918B808B81EC99
:100C500090E0938B828B82EC90E0958B848B86EC7A
:100C600090E0978B868B118E128E138E148E0895C2
:100C70000E946F0688F09F5798F0B92F9927B751B7
:100C8000B0F0E1F0660F771F881F991F1AF0BA9530
:100C9000C9F714C0B13091F00E948906B1E00895FF
:100CA0000C948906672F782F8827B85F39F0B93FF1
:100CB000CCF3869577956795B395D9F73EF49095E3
:100CC0008095709561957F4F8F4F9F4F089557FD89
:100CD0009058440F551F59F05F3F71F04795880FAA
:100CE00097FB991F61F09F3F79F087950895121641
:100CF00013061406551FF2CF4695F1DF08C01616ED
:100D000017061806991FF1CF86957105610508949D
:100D10000895E894BB2766277727CB0197F90895B4
:100D2000A1E21A2EAA1BBB1BFD010DC0AA1FBB1FEF
:100D3000EE1FFF1FA217B307E407F50720F0A21B61
:100D4000B30BE40BF50B661F771F881F991F1A94CE
:100D500069F760957095809590959B01AC01BD01F8
:100D6000CF010895EE0FFF1F881F8BBF0790F691EC
:080D7000E02D1994F894FFCF67
:100D780000000000C7018D03680114029901770182
:060D88008B010D0A0000C2
:00000001FF
